:100000000C9469000C9491000C9491000C94910054
:100010000C9491000C9491000C9491000C9491001C
:100020000C9491000C9491000C9491000C9491000C
:100030000C9491000C9491000C9491000C949100FC
:100040000C9427030C9491000C9408060C943A0627
:100050000C9491000C9491000C9491000C949100DC
:100060000C9491000C949100000000080002010023
:100070000003040700000000000000000102040863
:100080001020408001020408102001020408102002
:10009000040404040404040402020202020203032E
:1000A00003030303000000002300260029000000D2
:1000B0000000250028002B0000000000240027007D
:1000C0002A00E100160121012C013701E6026A062F
:1000D000F30611241FBECFEFD4E0DEBFCDBF11E089
:1000E000A0E0B1E0EEE0F0E102C005900D92AA3987
:1000F000B107D9F722E0AAE9B1E001C01D92AD36FF
:10010000B207E1F710E0C2EDD0E004C02297FE0193
:100110000E940108C23CD107C9F70E9403070C9452
:1001200005080C940000CF93DF93CDB7DEB764973A
:100130000FB6F894DEBF0FBECDBF8BE0E1E6F1E075
:10014000DE01119601900D928A95E1F789E0ECE6C7
:10015000F1E0DE011C9601900D928A95E1F726E010
:1001600040E855E260E070E08AEC91E00E94A6056C
:1001700060E071E08AEC91E00E945D07AE01445FAF
:100180005F4FBE016F5F7F4F80EA91E00E94EC00FD
:10019000039739F069E271E08AEC91E00E945D0713
:1001A000FFCF68E471E08AEC91E00E94500764960A
:1001B0000FB6F894DEBF0FBECDBFDF91CF9108958B
:1001C00008950F9300E020E040E060E08AE991E0CC
:1001D0000E94E7060F910895CF93CB01FA01019099
:1001E0000020E9F79F0121503109241B350BFB0149
:1001F00001900020E9F73197E61BF70B6E2F0E9464
:100200006F028F3F79F0CAE068E873E180E090E028
:100210000E9494030E94B902982F9D7F21F4C1503F
:1002200011F0F2CF84E090E0CF9108950F9300E0B9
:1002300020E040E060E081EA91E00E94E7060F9153
:1002400008950F9300E020E040E060E087EA91E04D
:100250000E94E7060F9108950F9300E020E040E030
:1002600060E08DEA91E00E94E7060F9108950F93F8
:1002700000E020E040E060E083EB91E00E94E706D0
:100280000F9108950E94F10261E08AE00E942B0420
:1002900060E087E00E942B0461E089E00E942B046B
:1002A00061E08AE00E94640461E08AE00E946404E4
:1002B00060E089E00C94640460E08AE00C946404DB
:1002C00061E08AE00C946404CF93DF931F92CDB772
:1002D000DEB7898389818EBD00000DB407FEFDCF96
:1002E0008EB52AE030E0000021503109E1F70F908F
:1002F000DF91CF91089587E00E949A04892BD9F766
:100300000895CF93DF93EC018FEF0E9464018883FF
:100310008AE090E000000197E9F7DF91CF9108951E
:100320001F93CF93DF93182FEB01CB010E94810124
:1003300081E090E02881211711F080E090E0DF91CA
:10034000CF911F910895CF93DF931F92CDB7DEB762
:100350001982CE0101960E94810189810F90DF915F
:10036000CF9108951F93CF93DF93182FC9EED3E059
:100370000E94A301282F8F3E29F0219731F081138D
:10038000F7CF03C08FEF9FEF04C081E090E021130F
:1003900080E0DF91CF911F910895DF92EF92FF925D
:1003A0000F931F93CF93DF938C01E62ED42E862FCD
:1003B0000E946401E801F12CCE01801B910B8E1587
:1003C0009F0524F489910E946401F6CF81E0D81240
:1003D0000AC08EEEDF91CF911F910F91FF90EF90A9
:1003E000DF900C946401DF91CF911F910F91FF90EA
:1003F000EF90DF900895CF93DF93EC018FEF0E9491
:100400006401209709F08883DF91CF910895CF92FE
:10041000DF92EF92FF920F931F93CF93DF931F9280
:10042000CDB7DEB7082F162F6A017901198280EE49
:100430000E94B201892B19F480E090E02AC0CE011D
:1004400001960E948101006889818013F5CFCE0159
:1004500001960E94810189818113EECFC7010E941C
:10046000FB0100E010E0F701808190E00817190718
:1004700044F4C601800F911F0E9481010F5F1F4F3E
:10048000F2CFBE016F5F7F4F8EEE0E94900181E040
:1004900090E00F90DF91CF911F910F91FF90EF901F
:1004A000DF90CF900895CF93DF93D82FC62F80EEA3
:1004B0000E9464018AE090E00E94BC038D2F8F7738
:1004C0000E9464018C2F0E946401C11105C08EEE50
:1004D000DF91CF910C946401DF91CF910895CF9279
:1004E000DF92EF92FF920F931F93CF93DF9300D091
:1004F000CDB7DEB78C01D62E7A01C22E8091BF0116
:10050000811105C00E94420181E08093BF010E94D9
:100510007B010E945C0162E081E10E94530240E0A5
:100520006D2DC8010E94CD0141E06C2DC7010E94D4
:10053000CD010E947B011A8219829E012F5F3F4FDD
:10054000AE014E5F5F4F61E081E10E940702892B9F
:1005500011F48FEF8A830E9460018A810F900F90BF
:10056000DF91CF911F910F91FF90EF90DF90CF908F
:100570000895CF93DF9300D0CDB7DEB78091BF0150
:10058000811105C00E94420181E08093BF010E9459
:100590007B010E945C0160E080E20E9453020E94A5
:1005A0007B018FEF8A8319829E012F5F3F4FAE013F
:1005B0004E5F5F4F61E080E20E9407020E9460018F
:1005C0008A810F900F90DF91CF9108950F9300E0F3
:1005D00020E040E060E089EB91E00E94E7060F91A7
:1005E0000895CF93CFB7F8948091C001811127C0AF
:1005F000EAE9F0E08491E6E8F0E09491E82FF0E099
:10060000EE0FFF1FE854FF4FA591B4918C91892301
:1006100021F461E08AE00E94640461E08AE00E94C3
:100620002B048CB580618CBD8CB580648CBD61E081
:100630008DE00E942B0461E08BE00E942B048091EE
:10064000C0018F5F8093C001CFBFCF9108951F92EB
:100650000F920FB60F9211242F933F938F939F9376
:10066000AF93BF938091C2019091C301A091C40147
:10067000B091C5013091C10123E0230F2D3720F443
:100680000196A11DB11D05C026E8230F0296A11DEC
:10069000B11D2093C1018093C2019093C301A09327
:1006A000C401B093C5018091C6019091C701A0918A
:1006B000C801B091C9010196A11DB11D8093C60169
:1006C0009093C701A093C801B093C901BF91AF91A6
:1006D0009F918F913F912F910F900FBE0F901F9080
:1006E00018953FB7F8948091C6019091C701A091E9
:1006F000C801B091C90126B5A89B05C02F3F19F0CC
:100700000196A11DB11D3FBF6627782F892F9A2F13
:10071000620F711D811D911D42E0660F771F881FBA
:10072000991F4A95D1F70895CF92DF92EF92FF92E9
:10073000CF93DF936B017C010E947103EB01C11425
:10074000D104E104F10489F00E94DC070E947103E6
:100750006C1B7D0B683E734090F381E0C81AD10892
:10076000E108F108C851DC4FEACFDF91CF91FF904B
:10077000EF90DF90CF9008958230910538F0880F88
:10078000991F880F991F05970197F1F7089578949D
:1007900084B5826084BD84B5816084BD85B5826086
:1007A00085BD85B5816085BDEEE6F0E08081816024
:1007B0008083E1E8F0E01082808182608083808124
:1007C00081608083E0E8F0E0808181608083E1EBFC
:1007D000F0E0808184608083E0EBF0E080818160E4
:1007E0008083EAE7F0E0808184608083808182609A
:1007F0008083808181608083808180688083109283
:10080000C1000895833081F028F4813099F082305E
:10081000A1F008958730A9F08830B9F08430D1F480
:10082000809180008F7D03C0809180008F778093BE
:100830008000089584B58F7702C084B58F7D84BD14
:1008400008958091B0008F7703C08091B0008F7DB4
:100850008093B0000895CF93DF9390E0FC01E458BB
:10086000FF4F2491FC01E057FF4F8491882349F109
:1008700090E0880F991FFC01E854FF4FA591B491B7
:1008800082559F4FFC01C591D4919FB7611108C05B
:10089000F8948C91209582238C93888182230AC0BE
:1008A000623051F4F8948C91322F309583238C93DD
:1008B0008881822B888304C0F8948C91822B8C933E
:1008C0009FBFDF91CF9108950F931F93CF93DF9335
:1008D0001F92CDB7DEB7282F30E0F901E859FF4F5E
:1008E0008491F901E458FF4F1491F901E057FF4F4B
:1008F00004910023C9F0882321F069830E94020437
:100900006981E02FF0E0EE0FFF1FE255FF4FA59148
:10091000B4919FB7F8948C91611103C01095812315
:1009200001C0812B8C939FBF0F90DF91CF911F91BE
:100930000F910895CF93DF93282F30E0F901E85904
:10094000FF4F8491F901E458FF4FD491F901E0572A
:10095000FF4FC491CC2391F081110E940204EC2F2F
:10096000F0E0EE0FFF1FEC55FF4FA591B4912C91D5
:100970002D2381E090E021F480E002C080E090E04F
:10098000DF91CF910895FC01818D228D90E0805CF4
:100990009F4F821B91098F7399270895FC01918DB8
:1009A000828D981731F0828DE80FF11D858D90E0D2
:1009B00008958FEF9FEF0895FC01918D828D981718
:1009C00061F0828DDF01A80FB11D5D968C91928D33
:1009D0009F5F9F73928F90E008958FEF9FEF089530
:1009E00080E696E0892B49F080E090E0892B29F0A1
:1009F0000E94600681110C9400000895FC01848D12
:100A0000DF01A80FB11DA35ABF4F2C91848D90E038
:100A100001968F739927848FA689B7892C93A08913
:100A2000B1898C9180648C93938D848D981306C0CA
:100A30000288F389E02D80818F7D80830895CF9394
:100A4000DF93EC01888D8823C9F0EA89FB898081D6
:100A500085FD05C0A889B9898C9186FD0FC00FB6A8
:100A600007FCF5CF808185FFF2CFA889B9898C91E9
:100A700085FFEDCFCE010E94FE04E7CFDF91CF913D
:100A80000895CF92DF92FF920F931F93CF93DF933E
:100A90001F92CDB7DEB76C0181E0D60158968C93DA
:100AA00058975B969C915B975C968C915C9798139A
:100AB00007C05096ED91FC915197808185FD2EC025
:100AC000F601038D10E00F5F1F4F0F731127F02EFB
:100AD000F601848DF81211C00FB607FCF9CFD601CC
:100AE0005096ED91FC915197808185FFF1CFC60121
:100AF00069830E94FE046981EBCF838DE80FF11DAD
:100B0000E35AFF4F6083D6015B960C935B97529636
:100B1000ED91FC915397808180620CC0D60156966E
:100B2000ED91FC91579760835096ED91FC91519710
:100B300080818064808381E090E00F90DF91CF918D
:100B40001F910F91FF90DF90CF900895BF92CF92A9
:100B5000DF92EF92FF92CF93DF93EC016A017B016A
:100B6000B22EE889F98982E08083411581EE580729
:100B700061057105A1F060E079E08DE390E0A701E7
:100B800096010E94DD07215031094109510956950E
:100B9000479537952795211580E1380798F0E88922
:100BA000F989108260E874E88EE190E0A70196016F
:100BB0000E94DD0721503109410951095695479599
:100BC00037952795EC85FD853083EE85FF8520835D
:100BD000188EEC89FD89B082EA89FB898081806169
:100BE0008083EA89FB89808188608083EA89FB8928
:100BF000808180688083EA89FB8980818F7D808302
:100C0000DF91CF91FF90EF90DF90CF90BF9008954C
:100C10001F920F920FB60F9211242F938F939F93D1
:100C2000EF93FF93E091DA01F091DB018081E09195
:100C3000E001F091E10182FD12C090818091E30119
:100C40008F5F8F732091E401821751F0E091E301EF
:100C5000F0E0E653FE4F958F8093E30101C0808161
:100C6000FF91EF919F918F912F910F900FBE0F9059
:100C70001F9018951F920F920FB60F9211242F9369
:100C80003F934F935F936F937F938F939F93AF9314
:100C9000BF93EF93FF938AEC91E00E94FE04FF91D3
:100CA000EF91BF91AF919F918F917F916F915F91E4
:100CB0004F913F912F910F900FBE0F901F9018955D
:100CC0008AEC91E00E94C30421E0892B09F420E022
:100CD000822F08951092CD011092CC0188EE93E0FE
:100CE000A0E0B0E08093CE019093CF01A093D0011B
:100CF000B093D10189E791E09093CB018093CA0131
:100D000085EC90E09093D7018093D60184EC90E03D
:100D10009093D9018093D80180EC90E09093DB010F
:100D20008093DA0181EC90E09093DD018093DC0107
:100D300082EC90E09093DF018093DE0186EC90E0FE
:100D40009093E1018093E0011092E3011092E4019D
:100D50001092E5011092E6010895AF92BF92CF92F2
:100D6000DF92EF92FF920F931F93CF93DF936C016B
:100D70007B01C0E0D0E000E010E0F601EC0FFD1FC9
:100D80004AE050E06281C7010E94D5075C016EE233
:100D9000C7010E9452078A0D9B1D080F191F21963B
:100DA000C330D10551F74AE050E0F6016581C70133
:100DB0000E94D507800F911FDF91CF911F910F9156
:100DC000FF90EF90DF90CF90BF90AF9008950F937A
:100DD000FC0189E891E091838083628343832483CB
:100DE00005830F91089589E891E0909368028093BC
:100DF00067021092690210926A0210926B021092BE
:100E00006C02089508950E94C7030E9402070E9481
:100E10009300C0EFD4E00E94E0002097E1F30E942D
:100E2000F004F9CFCF92DF92EF92FF920F931F93CE
:100E3000CF93DF937C016A01EB0100E010E00C1519
:100E40001D0571F06991D701ED91FC910190F08140
:100E5000E02DC7010995892B19F00F5F1F4FEFCFC8
:100E6000C801DF91CF911F910F91FF90EF90DF901C
:100E7000CF9008956115710581F0DB010D90002080
:100E8000E9F7AD0141505109461B570BDC01ED91CB
:100E9000FC910280F381E02D099480E090E00895B8
:100EA0000C943A07DC01ED91FC910190F081E02D6A
:100EB00009946BE871E00C943A070F931F93CF935A
:100EC000DF93EC010E943A078C01CE010E94590782
:100ED000800F911FDF91CF911F910F9108958F92F5
:100EE0009F92AF92BF92CF92DF92EF92FF920F93B9
:100EF0001F93CF93DF93CDB7DEB7A1970FB6F894CA
:100F0000DEBF0FBECDBF7C01C42EE52FCB01D22E9C
:100F100019A221E02D1510F02AE0D22E8E010F5DCE
:100F20001F4F8D2C912CA12CB12C6C2D7E2FA50147
:100F300094010E94DD078C2DD29E8019112401504E
:100F400011098A3014F4805D01C0895CF801808346
:100F5000211531054105510521F0C22EE32FCA01AB
:100F6000E4CFB801C7010E943A07A1960FB6F894E2
:100F7000DEBF0FBECDBFDF91CF911F910F91FF90CC
:100F8000EF90DF90CF90BF90AF909F908F9008959B
:100F90002115310541F4DC01ED91FC910190F081C6
:100FA000E02D642F09940C946F079A01462F50E0AE
:100FB00060E070E00C94C8070895A1E21A2EAA1B05
:100FC000BB1BFD010DC0AA1FBB1FEE1FFF1FA217F9
:100FD000B307E407F50720F0A21BB30BE40BF50BF6
:100FE000661F771F881F991F1A9469F7609570957F
:100FF000809590959B01AC01BD01CF010895EE0F46
:0E100000FF1F0590F491E02D0994F894FFCFA6
:10100E00417474656D7074696E6720746F20636FC0
:10101E006E6E65637420746F206F70656E206E65E2
:10102E0074776F726B2E2E2E00436F756C646E2765
:10103E0074206765742061207769666920636F6E1E
:10104E006E656374696F6E00436F6E6E6563746573
:10105E006420746F20746865206E6574776F726B90
:10106E000062656C6B696E2E636163003965326276
:10107E0034396363000000000041051207C304DC2D
:10108E0004CE041F0500000000AD060D0A006E61BF
:0A109E006E00696E66006F76660052
:00000001FF
